:10000000E5C0FECFFDCFFCCFFBCFFACFF9CFF8CFC5
:10001000F7CFF6CFF5CF17C1F3CF5FC1F1CFF0CF58
:10002000EFCFEECFEDCF0000000000000000000099
:10003000000000007E0000000000005121000000D0
:100040005A534157400000435844452423000020A0
:10005000564654522500004E424847595E00000063
:100060004D4A55262A00003C4B494F292800003EA6
:100070003F4C3A505F00000022007B2B0000000044
:100080000A7D7C000000000000000000000000006D
:1000900000006000000000000071310000007A7371
:1000A000617732000063786465343300002076663F
:1000B00074723500006E62686779360000006D6A00
:1000C00075373800002C6B696F303900002E2F6CAB
:1000D0003B702D00000027005B3D000000000A5D22
:1000E0005C001027E80364000A0001000010000112
:1000F0001000010000000000202020202020455298
:10010000524F52202020202000202020202020207C
:100110002020202020202020200055207069742ECF
:10012000203D2020002E007600204C4F57204241D9
:1001300054544552592121212000426365726F2099
:100140003D2000504F56544F5221206A203D200040
:1001500045525221206A203D200020426365726F83
:1001600020003348414B4F42203D20002057616919
:10017000742E2E2E2000203341484F424F3F202026
:1001800059202F204E20007065726564616368619C
:1001900020006B6F6E6563207065726564616368D3
:1001A0006921000001002D4E414E00494E460000DD
:1001B00080C001000200F40002000800F600010007
:1001C0001002A40102001402B0010000F894EE270E
:1001D000ECBBF1E0FBBFEBBFE5BFF8E1F1BDE1BD7A
:1001E0008DE0A2E0BB27ED938A95E9F780E094E0EB
:1001F000A0E6ED930197E9F7E2EBF1E085919591A7
:10020000009761F0A591B59105901590BF01F0019F
:1002100005900D920197E1F7FB01F0CFEFE5EDBFFF
:10022000E4E0EEBFC0E6D1E001C1AA93E881E06C52
:10023000E7B98BE18A95F1F7369A349BFECF349A71
:10024000E4B1F5B15AC45BD4A0D51BB10CB1E12F18
:10025000EC71E1F4E0910202F0E0EE52FE4F008317
:10026000A0910202AF5FA0930202A03319F4E0E074
:10027000E0930202A0910402AF5FA0930402A033B6
:1002800029F4E0E0E0930402689423F809911991BD
:100290003DC01A93E0910402E03029F4999902C01C
:1002A000EFEF19C0F7CFE0910302F0E0EE52FE4FFE
:1002B0001081A0910302AF5FA0930302A03319F451
:1002C000E0E0E0930302F894E0910402E150E0934F
:1002D00004027894E12F1991089511D416D4E030D6
:1002E000A9F013D4E150E0930F02E0910E02F0E088
:1002F000EB5FFD4FE081ECB9A0910E02AF5FA093E0
:100300000E02A83019F4E0E0E0930E02E991EFBF8D
:10031000F991E991A9911895AA93A0910F02A8309B
:10032000E1F3F894F2D3E03011F45D9916C0E09156
:100330000D02F0E0EB5FFD4FA881A083A0910D02BC
:10034000AF5FA0930D02A83019F4E0E0E0930D0236
:10035000DCD3EF5FE0930F0202C0E881ECB9789440
:10036000CCC3AA931A93F894D3D398D4A1EACAD44D
:10037000A0E0ADD41E2FA1D47894E12F80C3AA931E
:10038000F894C6D3A881BED498D47894A5E0C7D3F6
:1003900077C344247724C5D3C7D3C3D3C5D3C1D32C
:1003A000979AA4E6BCD3C3D3BFD3C1D3BDD3BFD325
:1003B000C1D3B7D3B9D3B5D3B7D3B3D3B5D30DD393
:1003C000A8EFB0E04CD3B9D3BBD3A9E0B1E047D399
:1003D00044247724EFEF5E2EE0910402E03011F028
:1003E00058DFFACF0895D1D410E0849BFECFDD24EE
:1003F000A9D3C0F4AAD3849B08C0ADD3E93EADEF26
:10040000FA0710F0E0E00FC0F6CFE0E08599E1E0F8
:100410000E2FED2DA02F98D40E2F102B849BFECFE6
:10042000D394E6CFE12F099119910895E0E0E8BB5C
:10043000E7BBEAE7E5BBE0E0E4BBECEFE2BBE0E80A
:10044000E1BBE0E0E3BFE2BFEFBDEEBDEDBDECBD63
:10045000E7BDE6BDEBBDEABDE9BDE8BDE2BDE5BD7A
:10046000E4BDE3BDE5BFE9BFEBB9E8EDEAB9E6E815
:10047000E0BDE0E0E0BDE3E3E9B9E0E8E8B9E0E0F1
:10048000E0BF07D4A0E10ED37894E4E96E2E55D3F3
:10049000A0E067DFFE2FE0E067D3A1E062DFF0E0DD
:1004A000A091C501B091C601EA0FFB1F5DD3A2E088
:1004B00058DFE093C40191D2E0ECE7B9E7E8E6B990
:1004C000979857D3A4E0B1DEDF01EAE0F0E04AD428
:1004D00053D357D3E7E440D44FD3979A57D35BD342
:1004E0002CD3A0E068D2AAE1B1E0B9D2A091CD01AD
:1004F00083D2A5E2B1E0B3D2A091CE017DD2A7E232
:10050000B1E0ADD2E0E0E7B9E6B9A8EEB3E012D4CD
:1005100038D3A03CE2E1BE0770F40FD311D3A9E2B7
:10052000B1E09DD236DF09D30BD3A9E2B1E097D277
:10053000A8EEB3E0FFD3772450D232D3FED2A0E0AE
:100540003AD233D340D37720B9F5849913C03ED340
:10055000FF93EF9348DFAF91BF91EC933DD3A08120
:10056000AA3511F4E1E07E2E37D3E081E03009F4C2
:10057000AA24EBD2A0910402A13028F08ADEE03256
:1005800011F4E2E07E2E9D9902C0E4E07E2E99995E
:1005900002C0E5E07E2E9B9902C0E3E07E2EE0E003
:1005A000EA1550F4D8D2E836ABE2FA0728F00ED3B9
:1005B000AAE5A083E1E07E2EE1E0E71509F0D4C0D2
:1005C000BA2CDE2EAA240DD3BD1408F10DD3A2310E
:1005D00011F410D3D39408D3A03F31F4D39404D3AF
:1005E000A23109F4FED2D394FFD2A23119F0A08136
:1005F000A03F09F40BC020FE04C0FFD2EA5DFF4F0C
:1006000003C0FBD2EC57FF4FE491EC93DDCFE9D26E
:10061000C7D200D3DD2496D2D8F5BA2CE0E0EB1592
:1006200020F501D30AD3CE2E0AD30CD3E081EC15EA
:1006300059F0D7D204D3A5D2AE1BBF0BA093C701EC
:10064000B093C801BB2408C0D5D2A0D2319794D2B0
:10065000BA9411F4E5E1DE2E94D2139728F472D205
:1006600010F4EAE0DE2E01C0D9CFEA2DA091CB0133
:10067000B091CC01F0E0EA17FB0709F0BBD220FEF5
:1006800002C060D208F002C0EAE0DE2ED394C3CFED
:1006900020FE15C09798A1D1E4E1ED1518F4A3E46C
:1006A000B1E002C0A0E5B1E0DAD1EA2DF0E0319787
:1006B00072D289D242D244D2C8D236D241C0BB24EF
:1006C0006FD298D28AD1B394AB1400F1C0D29A926F
:1006D000B6D2C1D254DE8A92B0D2AE2FB0D2B2D24C
:1006E000E081EA1719F07DD254DE10C0A091C40158
:1006F000A03140F0A4D2AFD2AA3019F0A0D2ABD230
:100700007BD103C09CD2A7D277D1DDCF20FE17C00A
:1007100014D213D2A82D33DE10D2E1E0EA93A92D32
:100720002EDE0BD2A0E01DDE8E1611F032DEDAC016
:1007300004D2A1E016DE9E1611F02BDED3C08ED2BD
:1007400097982ED2AAE5B1E08AD164D2E091CB018C
:10075000F091CC0116D206D31ED27724AA24E894B5
:1007600021F873D230D2979AE4E0E71579F497989C
:1007700017D26BD2979A31D118D267D224D274D2C1
:10078000DCD1DED175D2F5D17724AA24E3E0E715D8
:1007900011F5C7D122D1ACE6B1E061D1979AAB2C6B
:1007A000BB24EFD1149748F0F1D13197E5D13BD27A
:1007B00044D2CE2EEAE0EC15A1F797980ED1F5D1F0
:1007C00044D201D251D2B9D1BBD152D2979AD1D110
:1007D00045D27724AA24E5E0E71509F050C0A1D15D
:1007E00000D2FBD0A6E7B1E03AD1979A9D9B02C018
:1007F0009B9901C001C0FACF999918C09B9909C073
:100800003BD2EF5FE093C4012FD2A8EC88D130D265
:1008100091D19D9909C030D2E150E093C40124D216
:10082000A8EC7DD125D286D1E5D1E6CF20FE10C03F
:1008300084D1E2E0EA93A091C401A1DD7ED1A2E0DF
:1008400090DDAE2FE091C401EA1711F0A2DD4AC09D
:1008500090D19B9906C0E2E0F0E0E093C501F093EF
:10086000C6019ED19798B9D0A0D1EFD1ACD1FCD11F
:1008700064D166D1FDD1979AAA2477247AD1E2E097
:10088000E71579F5AAD0A7E8B1E0E9D0FAD183D18C
:10089000EAE0EA93A0E08FD096D1E2E0F0E06CD1FC
:1008A0004CD1A0E05EDDAE2F37DD47D1A1E059DDB0
:1008B000AE2F32DDAAE030DDE4D163D1AE17BF0741
:1008C00030F4C5D1BAD15E2EA52D26DDF5CF85D069
:1008D000A2E9B1E0C4D031D133D1A9E0B1E0BFD0B9
:1008E000772431CEFFCFBA93AA93A991B991E99118
:1008F000F99130962AF4E095F09531966DE26D937A
:10090000E89480E197E20DD088EE93E00AD084E687
:10091000992707D08AE005D06E2F10D066276C93F8
:1009200008956627E817F90720F06395E81BF90B8F
:10093000C9F7662311F416F008956894605D6D930D
:100940000895FFE0FA95F1F70895A7B3AF70A7BB3C
:10095000C19AC098F6DFC29AF4DFA6B3C298F1DF5D
:10096000C29AEFDFC298A7FDF5CF0895A07FAB2B09
:10097000A8BBC29AE6DFC298E4DF0895AA93C198A3
:10098000A7B3A76FA7BBB8B3BF70A881EFDFA881DB
:10099000A295ECDFC19AB1C0C29AD3DFE6B3C29888
:1009A000D0DFE07F0895CDDFF7DFAE2FF5DFC19810
:1009B000E295EA2B0895AA93C8DFE881F0E0EC5EA7
:1009C000FD4FE081A981AE0FD9DFE981E0931802E4
:1009D000E881E093190222960895B7DFA2E0CEDF06
:1009E000B4DFACE0CBDFB1DFA1E0C8DFE0E0E09353
:1009F0001902E09318020895AA93EF93FF93A88138
:100A00006894AA3039F0E894E0911A02A091180293
:100A1000AE1750F0E0911902EF5FE09319028DD00C
:100A2000A0911902C8DF4EF0E0911802EF5FE09349
:100A300018028BDFC09AA881A1DFFF91EF915DC002
:100A4000BA93AA931A93A981BA81ED91A983BA8323
:100A50001E2FE03019F0A12FCFDFF5CF10C0BA93D1
:100A6000AA931A93E981FA813196E983FA8331973F
:100A7000E4911E2FE03019F0A12FBEDFF3CF1881D3
:100A800023960895AA27BB271197F1F70895AA93F3
:100A9000C198A7B3A76FA7BBB8B3BF70A88166DF23
:100AA000C19A2BC0AA93C298C098E881E0931A0219
:100AB000E058E0931602E881E054E0931702E6D094
:100AC000E5D0E4D0DFDFA0E2E2DFDCDFA8E256DF42
:100AD000D9DFA4E053DFD6DFA5E850DFD3DFA7B32B
:100AE000AF70A7BBC19A5FDFE53011F0E0E005C051
:100AF0002CDFA6E043DF71DFE1E021960895AA93A1
:100B0000EA93FA93EFB7EA930895E0910F020895FC
:100B1000C5D0A0EAF7D0AA81F5D0A981F3C0B0E092
:100B200009C19798A2E3FBCF979AA2E3F8CF9798D1
:100B3000A6E9F5CF979AA8ECF2CFE0E0EA93089502
:100B4000A1E039CFEAE0DE160895E0E0E093C901C4
:100B5000E093CA010895A9ECB1E0ED91FD913196C1
:100B6000FE93EE9331970895E093C501F093C6018B
:100B7000E4CFA4EFB1E0DEC0E093C701F093C80179
:100B80000895A091C701B091C8010895E091C701EF
:100B9000F091C8010895FA93EA93ADECB1E0A3CEC9
:100BA000E091C501F091C601E7CFAAE3B1E057DFBC
:100BB000E091C401F0E03196E093CB01F093CC01D9
:100BC000E0DFD0D0E8CFADECB1E03ACFA394EA2D8E
:100BD000F0E0E05AFE4F0895EA2DF0E0E05AFE4FB3
:100BE0000895E89420F80895ED2DF0E0E05AFE4FC6
:100BF000A0810895689420F80895A394AA2DB0E0E8
:100C0000A05ABE4FED2DD394F0E0E05AFE4FE081A4
:100C1000F0E00895E091C401F0E03196E093CB015B
:100C2000F093CC010895E091C8018E2EA0E0E091F0
:100C3000C701EA1B9E2E8A920895A92D92CBEB2D17
:100C4000F0E00895E05AFE4F0895A2E368CF9EDFDA
:100C5000319692DFE8CFF6DFA081089597DFE09329
:100C6000C501F093C6010895E091C401F0E093CF6F
:100C7000A2E6B1E0F4DEA7CF979AAFDEE091C4011F
:100C80000895E091C501F091C6010895FBDEA0E34F
:100C9000FECE939892988B9A8A9815C08A988B98D2
:100CA000EE270000829B0895839B089504D08A9AC2
:100CB00002D08B9AE1E06DE007C08A9A8B9A03D04C
:100CC0008B98F9DF8A986BE16A95F1F7089578E0DF
:100CD0008B98F1DF839BFECFEEDF88948299089496
:100CE0008B9AF1DFEE1F7A9599F77A2F772311F41B
:100CF0008A9801C08A9ADFDF8B98E5DF8B9ADBDF69
:100D00008A98D9CF78E0AA0F10F48A9801C08A9AFD
:100D1000DADF8B98D0DF839BFECFCDDF8B9A7A957D
:100D200091F78A98C8DF8B98CEDFE1E08299EE27B1
:100D30008B9AC1CF109639F080ED97E00197F1F7CB
:100D4000A8951197C9F70895EE230E2EEA2F19F0F2
:100D5000EE0F0A94E9F708956E2F6A9FF0016B9FDA
:100D6000F00D08950024112490E1AA0FBB1F001C70
:100D7000111C0E1A1F0A18F40E0E1F1E01C0A160CE
:100D80009A9599F7FD01D00108951A930A93089551
:00000001FF
